:020000040800F2
:10000000700C002089010008B32C0008C9250008E5
:10001000B12C00086D0400086D35000800000000D8
:10002000000000000000000000000000C5300008D3
:10003000FB070008000000005D2F0008C730000823
:10004000A3010008A3010008A3010008A301000800
:10005000A3010008A3010008A3010008A3010008F0
:10006000A3010008A3010008A3010008C5070008B8
:10007000A3010008A3010008A3010008A3010008D0
:10008000A3010008A3010008A3010008A3010008C0
:10009000A3010008A3010008A3010008A3010008B0
:1000A000A3010008A3010008A3010008A3010008A0
:1000B000A3010008A3010008A3010008A301000890
:1000C000A3010008A3010008A3010008A301000880
:1000D000A301000861350008A3010008A30100087E
:1000E000A3010008A3010008A301000800F002F822
:1000F00000F03AF80AA090E8000C82448344AAF188
:100100000107DA4501D100F02FF8AFF2090EBAE885
:100110000F0013F0010F18BFFB1A43F0010318473B
:10012000B43D0000D43D0000103A24BF78C878C127
:10013000FAD8520724BF30C830C144BF04680C60ED
:10014000704700000023002400250026103A28BF35
:1001500078C1FBD8520728BF30C148BF0B60704739
:100160001FB51FBD10B510BD00F08DF81146FFF78B
:10017000F7FF03F057FA00F0ABF803B4FFF7F2FF14
:1001800003BC00F0AFF80000094880470948004769
:10019000FEE7FEE7FEE7FEE7FEE7FEE7FEE7FEE737
:1001A000FEE7FEE704480549054A064B7047000094
:1001B00043310008ED00000870060020700C00209C
:1001C0007008002070080020B2F120030AD5C2F1A7
:1001D000200320FA02F001FA03F321FA02F140EAC7
:1001E0000300704721FA03F04FF0000170474FF011
:1001F00000020429C0F0128010F0030C00F01B80F4
:10020000CCF1040CBCF1020F18BF00F8012BA8BF01
:1002100020F8022BA1EB0C0100F00DB85FEAC17CC5
:1002200024BF00F8012B00F8012B48BF00F8012B78
:1002300070474FF0000200B51346944696462039A9
:1002400022BFA0E80C50A0E80C50B1F12001BFF48F
:10025000F7AF090728BFA0E80C5048BF0CC05DF8F5
:1002600004EB890028BF40F8042B08BF704748BF43
:1002700020F8022B11F0804F18BF00F8012B7047B7
:10028000704770477047754600F028F8AE46050085
:100290006946534620F00700854618B020B5FFF7A1
:1002A00081FFBDE820404FF000064FF000074FF0FF
:1002B00000084FF0000B21F00701AC46ACE8C00984
:1002C000ACE8C009ACE8C009ACE8C0098D4670478D
:1002D0000446AFF300802046FFF74FFF0048704709
:1002E0001006002001491820ABBEFEE726000200E0
:1002F0007047000070B5044600688168C943C907AB
:1003000017D1816821F00101816001F081F8054673
:100310000AE000BF01F07CF8401B022804D92068E5
:100320008068C043C00706D020688068C043C0070B
:10033000F0D0002070BDA06A40F01000A062E06A1A
:1003400040F00100E062012070BD10B50146406A36
:10035000826A12F0500F05D0006A026BBDE81040AF
:1003600008461047816A41F400718162016889681A
:10037000C1F3424107290CD1017B51B9816A21F4B3
:1003800080718162816AC90403D4816A41F00101EC
:10039000816200F03DFB10BD10B5406A816A41F0FA
:1003A00040018162C16A41F00401C16200F097FB23
:1003B00010BD10B5406A00F091FB10BDF8B50026E5
:1003C0000446009600688168C943C9072DD081683A
:1003D00041F001018160164816490068B0FBF1F058
:1003E00000E0401E00900028FBD101F011F8054606
:1003F00016E000BF01F00CF8401B022810D920685D
:100400008068C043C0070BD0A06A40F01000A06213
:10041000E06A40F00100E06284F824600120F8BD49
:1004200020688068C043C007E4D10020F8BD000008
:100430001400002040420F00F0B5B2FBF1F600229C
:1004400011E000252C4606E004FB0127641C30F86F
:100450001770A4B23D44B442F6D3B5FBF6F423F8CA
:100460001240521C92B28A42EBD3F0BDFEE700006C
:100470002DE9F05F044690F83C005D4F002604250E
:10048000DFF870A1801E04F14C014FF002094FF01B
:1004900001084FF4807B062875D2DFE800F0323285
:1004A0000370707094F83D00032804D0022816D021
:1004B000012823D084E094F8700002280ED008466A
:1004C00000F09AF83968B4F86C00086400225946C4
:1004D000504600F098FF032084F83C0070E094F848
:1004E000700002286CD0084600F086F800225946B9
:1004F000504600F088FF84F83C9061E084F83C802E
:100500005EE094F83D00042894F8700002D00228C0
:1005100009D020E0022811D1084603F071F82064C8
:1005200084F83C5006E0386806640122594650467B
:1005300000F069FF94F83D0004280CD194F8700095
:10054000032808D13868066401225946504600F055
:100550005AFF84F83C50A06C817821B1017831B108
:10056000007940B10FE0052084F83C0024E006202B
:1005700084F83C001AE0082084F83C002FE094F84E
:100580003D00042815D094F83C00072806D0062822
:100590000CD0052810D0082821D011E0206B0228AB
:1005A00007DC94F83400012803D009E0A06C00783F
:1005B00004E084F83C5003E0A06C80780028F8D177
:1005C00010215546504600F019FF58B12021284609
:1005D00000F014FF48B184F83460BDE8F09FA06CCF
:1005E0000079EBE784F83480F7E784F83490F4E797
:1005F00060050020000C014090F8241011B1012189
:1006000080F8241000214161C160704710B5044694
:1006100000F0ACF894F82400022801D0002010BDAE
:100620006069E06100206061012010BD10B50446E2
:100630000261022904D0012905D0032913D004E066
:100640004FF07E5000E00948A06004F11C0002F069
:10065000E9FC00B1012084F824002946A06803F0D9
:10066000A1F9606010BD0248EEE700006F12833A06
:10067000BD37863510B5044690F83C101B4A4C3007
:10068000022904D003290BD0012913D01AE0184BFA
:10069000B4F86C101B681964A16BFFF7B7FF02E098
:1006A000A16B00F063F894F83C0002281BD00328EB
:1006B00019D007E0014604F1680002F059FF042058
:1006C00084F83C0094F8340000280BD00949E06A13
:1006D00003F03EF8084903F065F900BF03F0FAF8AB
:1006E00084F8440010BDA06DF8E700000000204130
:1006F00060050020666686400000C842164910B5B5
:10070000096804460020086401221102134800F021
:100710007AFE114801F00CFC04210F4801F05AFD4B
:100720000C210D4801F056FD142221460C4800F022
:10073000ABFA0A2000F0AEFC0A4A012104F14C0099
:10074000FFF774FF08490120A1640870A16C88704C
:10075000A16C087110BD000060050020000C014074
:10076000980400200000C8420100002070B5044633
:1007700090F8240015460B4601281DD0E0B103284F
:1007800019D11846A16903F00BFA294603F00AF9BA
:10079000616902F06FFF60612846A16803F002F909
:1007A000E16802F067FFE060216903F0C7F902D851
:1007B000022084F8240070BD032084F82400A16185
:1007C00070BD0000014800F055BB0000C8040020C7
:1007D00030B590F840500124AC40C56B6C600468A3
:1007E00063604368102B036803D099600068C2609F
:1007F00030BD9A600068C16030BD704772B6FEE7D8
:1008000006490020C8610648016941F00401016100
:10081000016941F04001016170470000F0050020CE
:1008200000200240064A0021D16106490A6942F0CF
:1008300002020A614861086940F04000086170479F
:10084000F005002000200240044B0022DA61044A37
:10085000136943F00103136101807047F005002024
:100860000020024014480022C168CB06134904D579
:10087000CA6942F00202CA611022C3685B0705D54B
:10088000CB6943F00103CB6142F00402C369DB078B
:1008900007D0CB6943F00403CB61C16921F00101AA
:1008A000C161A2F58071013901D0C2607047C16990
:1008B00021F00101C161704700200240F0050020D5
:1008C00070B5054600F0A4FD0646114C09E0681C11
:1008D00007D025B100F09CFD801BA84201D9032060
:1008E00070BDE068C007F2D1E068800601D5202025
:1008F000E060E068C00605D4E069C00702D1E068A6
:10090000400703D5FFF7AEFF012070BD002070BD8A
:1009100000200240F8B50024009490F824202546D9
:10092000012A12D0012280F824204A681F23072AB6
:100930000DD20668776B521E02EB820293409F43F2
:100940000B6893401F43776319E00220F8BD0668E7
:100950000D2A0AD2376BD21F02EB820293409F43CB
:100960000B6893401F43376309E0F76A0D3A02EBC7
:10097000820293409F430B6893401F43F7620A68CB
:10098000072306680A2A0AD3F7680A3A02EB4202EA
:1009900093409F438B6893401F43F76008E037699B
:1009A00002EB420293409F438B6893401F433761A1
:1009B0000A68102A01D0112A20D1124B02689A42EB
:1009C00017D193681B0219D4936843F40003936012
:1009D0000968102912D10C490C4A0968B1FBF2F1DF
:1009E00001EB8101490000E0491E00910029FBD183
:1009F00004E0816A41F020018162012480F82450E2
:100A00002046F8BD002401401400002040420F00A1
:100A100070B5304B14220221A3F12800FFF70CFD22
:100A20002C482838FFF724FD2A4C283C208D02F062
:100A300071FFA063608D02F06DFFE0622046FFF75A
:100A400019FE94F83C00032801D0022841D1224D20
:100A50004FF48071284600F0D1FCA16C0A789042D6
:100A600002D04878401C48700421284600F0C6FC9B
:100A7000A16C8A78904202D0C878401CC87080214E
:100A8000284600F0BBFCA16C0A79904202D048795C
:100A9000401C4871A16C00204A78052A05D948708D
:100AA000A16C0A78C2F101020A70A16CCA78052A09
:100AB00005D9C870A16C8A78C2F101028A70A16C54
:100AC0004A79052A05D94871A06C0179C1F1010163
:100AD000017170BD4004002000080140704770475C
:100AE0002DE9F0414FF0000704003D467ED0A06A9A
:100AF000002628B9E66284F82460204600F07EF8DB
:100B00002046FFF7F7FBA16A01F01001014304D072
:100B1000A06A40F01000A06268E0A16A21F4885148
:100B200041F00201A1626268E169237B0A4347EA5E
:100B300043010A43A1684FF48077B94208D00129E4
:100B400006D0002194F814C0BCF1010F02D00AE0D5
:100B50003946F7E7F3B1A36A43F02003A362E36ADF
:100B600043F00103E3622368D3F804C02CF4694C1A
:100B70004CEA010CC3F804C023689968DFF870C020
:100B800001EA0C0111439960A168B9420BD0012917
:100B900009D00CE0DFF85CC0A3690CEB43330B43D6
:100BA00043F40061DFE7218A0D05A5F58015216872
:100BB000CB6A23F470032B43CB62216889680E4B08
:100BC0001940914208D1E662A16A21F0020141F088
:100BD0000101A162BDE8F081A06A20F0020040F0AE
:100BE0001000A062E06A40F00100E0620120F1E73D
:100BF000FDF7E1FF00E0FFFFFE0E1FFF70B586B0BE
:100C0000002506460095019502950395006819494F
:100C100088422DD11849886940F40070886188693C
:100C200000F400700490886940F0040088618869CD
:100C3000694600F0040004900320009001900F48E2
:100C400000F0ECFA0F4C0E48C4E900058020C4E91E
:100C5000025040002061800060612020C4E9060548
:100C6000204600F0B1F908B1FFF7C8FD34626662B2
:100C700006B070BD00240140001002400008014091
:100C800008000240C80400202DE9F04789460446C8
:100C90003B4900683B4F0E1D9046884201D0B84248
:100CA00007D1306810F4702F03D001252846BDE825
:100CB000F08794F8240001280CD0012084F8240047
:100CC0002046FFF77BFB05004FF0000004D084F8BE
:100CD0002400EBE70220EAE7A16A40F601629143B3
:100CE00041F48071A1622168B94218D1326812F4CE
:100CF000702F14D0A16A41F48011A16231684905B6
:100D000005D5A16A21F4005141F48051A162A16A84
:100D1000C9040AD5E16A21F00601E16206E0A26A8F
:100D200022F48012A2624968E9E7E06284F82400B4
:100D3000216A15488862216A1448C862216A1448E9
:100D4000086321686FF0020008602068816841F440
:100D500080718160216843464A464C31206A00F028
:100D600061F920688168C1F342410729816803D095
:100D700041F48011816099E741F4A001FAE7000095
:100D800000240140002801404B030008B303000881
:100D90009903000810B590F821100022022905D00F
:100DA0000421816380F82020012010BD01680B68B8
:100DB00023F00E030B6001680B6823F001030B6046
:100DC00090F84030C46B012101FA03F3636080F8AE
:100DD000211080F82020104610BD000010B590F8BA
:100DE00021100024022903D00421816301243DE065
:100DF00001680A6822F00E020A6001680A6822F09F
:100E000001020A601A4A0168914201D1012121E0E0
:100E1000174A1432914201D110211BE0144A2832A2
:100E2000914201D1891515E0114A3C32914201D11C
:100E300089140FE00E4A5032914202D14FF48031B2
:100E400008E00B4A6432914202D14FF4801101E074
:100E50004FF08071064A083A5160012180F8211054
:100E6000002180F82010416B01B18847204610BD59
:100E7000080002402DE9F05FC16B0C6801680B6847
:100E8000D0F840C0042202FA0CF2494DDFF824A148
:100E9000494E4A4FDFF828B1DFF828E122422CD032
:100EA0005A072AD50A68920603D40A6822F0040277
:100EB0000A600168A94201D1042219E0514501D11B
:100EC000402215E0B14202D14FF4806210E0B942F5
:100ED00002D14FF480420BE0594502D14FF48022F9
:100EE00006E0714502D14FF4800201E04FF08062CC
:100EF0002F4908394A60C16A3BE04FF0020808FAFE
:100F00000CF818EA040F4FF000094FF0010235D039
:100F10005FEA837832D50B689B0605D40B6823F013
:100F20000A030B6080F821200168A94201D1022246
:100F300019E0514501D1202215E0B14202D14FF410
:100F4000007210E0B94202D14FF400520BE0594553
:100F500002D14FF4003206E0714502D14FF4001285
:100F600001E04FF00072124908394A6080F8209081
:100F7000816A00291AD0BDE8F05F0847082505FA04
:100F80000CF5254212D01B0710D50B6823F00E0379
:100F90000B6090F84010C36B02FA01F15960826354
:100FA00080F8212080F82090016BE2E7BDE8F09FF7
:100FB000080002401C000240300002404400024091
:100FC000580002406C00024030B528B308C81349ED
:100FD00014221944B1FBF2F18900C1631049816305
:100FE000022141771A6843F6F0718A43D0E9001470
:100FF0002143D0E902452C4321430469214344693C
:101000002143846921431143196000214163012276
:1010100042770177084630BD012030BDF8FFFDBFA3
:101020000000024070B5044690F820000025012819
:101030000CD0012084F8200094F821600020012EBB
:1010400006D084F820000225284670BD022070BD1D
:10105000022684F82160A0632068066826F0010655
:1010600006602046FFF7B4FBE06A002820680168AC
:1010700002D041F00E0106E021F004010160206879
:10108000016841F00A0101602068016841F0010136
:101090000160D9E770B5044600F0BAF90546601C56
:1010A00002D004480078044400F0B2F9401BA0428A
:1010B000FAD370BD080000202DE9F0470546264808
:1010C0000F460126017E01290FD0012181460176BC
:1010D0002868DFF888804CF25034022808D0A246F5
:1010E0002046FFF7EDFBA8B131E00220BDE8F08714
:1010F0002046FFF7E5FB08BB0120FFF781FB2046F8
:10110000FFF7DEFBD8F81010064621F00401C8F8FE
:1011100010101CE04FF0FF303860AC6811E0204642
:10112000FFF780FB5046FFF7CBFBD8F81010060006
:1011300021F00201C8F8101001D03C6007E004F56E
:101140008064D5E9020100EB8120A042E7D80021AC
:1011500089F818103046C9E7F00500200020024049
:101160000348016941F080010161002070470000DF
:10117000002002402DE9F05F07461C488846002405
:10118000017E15461E46012909D0012181460176BE
:101190004CF2503A5046FFF793FB18B122E0022080
:1011A000BDE8F09F012F02D0022F00D00427D346C4
:1011B000DFF83CA0220128463146FFF705F881B24E
:1011C00008EB4400FFF740FB5846FFF779FBDAF8DD
:1011D000102022F00102CAF8102018B9641CE4B2F1
:1011E000BC42E7D3002289F81820D9E7F005002097
:1011F00000200240064900200A69120607D5054A68
:101200004A60054A4A600969090600D5012070470D
:101210000020024023016745AB89EFCD2DE9F84F4F
:10122000DFF8B8910024A9F1040B23460F2709F138
:10123000040AABF1040EC9E00125A5402A40AA42E8
:101240007DD1674ED1F804C0ACEB0608B44532D06E
:1012500014DCBCF1030F3AD009DCBCF1000F2AD03A
:10126000BCF1010F1CD0BCF1020F31D11DE0BCF16B
:10127000110F17D0BCF1120F2AD119E0B8F5881F51
:1012800019D006DCB8F5803F15D0B8F5801F1FD106
:1012900011E0B8F5001F0ED0B8F5041F18D10AE010
:1012A000CB6815E0CB681B1D12E0CB6808330FE05C
:1012B000CB680C330CE08B682BB1012B4FF008038B
:1012C00003D0456104E0042302E0056100E000234F
:1012D000FF2A01D8064601E000F104064FEA840522
:1012E00001D9A5F12005D6F8008007FA05FC28EA07
:1012F0000C0803FA05F548EA0508C6F800804D68B1
:10130000ED0062D5374DAE6946F00106AE61AD69BC
:1013100024F0030605F001050095334D06EB050C9E
:10132000DCF80850A607360F07FA06F825EA080584
:10133000DFF8B880404503D14FF0000817E044E0E3
:10134000DFF8AC80404502D14FF001080FE0DFF834
:10135000A480404502D14FF0020808E0DFF89880F1
:10136000404502D14FF0030801E04FF0040808FAAD
:1013700006F848EA0508CCF808804D68D9F80060FE
:10138000ED024D4601D5164300E096432E604D68B0
:10139000DAF80060AD02554601D5164300E09643E9
:1013A0002E604D68DBF80060AD035D4601D5164345
:1013B00000E096432E604D68DEF80060ED03754650
:1013C00001D5164300E096432E60641C0D682A4642
:1013D000E5407FF431AFBDE8F88F0000080401401C
:1013E0000000111000100240000001400008014000
:1013F000000C0140001001400014014080680840CA
:1014000000D0012070470AB1016170470904FBE771
:1014100001488068704700000800002070B5040093
:1014200025D094F83D00002520B984F83C50204692
:1014300000F04EF9242084F83D002068016821F076
:10144000010101602068016841F4004101602068E9
:10145000016821F40041016000F00CFB4D4A616815
:10146000914201D84C4900E04C49884201D2012008
:1014700070BD4B492368B0FBF1F15E6826F03F0672
:101480000E435E606368934206D94FF496735943E6
:101490004FF47A73B1FBF3F12368491C1E6A26F0FE
:1014A0003F06314319626168914210D84900401EDD
:1014B000B0FBF1F2521CC2F30B02042A01D2042049
:1014C00022E0B0FBF1F0401CC0F30B001CE0A2686E
:1014D000F2B301EBC10303EB0116431EB3FBF6F3BA
:1014E0005B1C43F480431B0549D092B301EBC1025E
:1014F00002EB0111401EB0FBF1F0401CC0F30B00E9
:1015000040F4804040F400402168CA694CF6FF7303
:101510009A431043C861D4E9071001432068026868
:1015200022F0C00211430160D4E9030101432068A5
:10153000826848F2FF339A4311438160D4E9050180
:1015400008432168CA6822F0FF021043C86001E026
:101550000EE016E02068016841F001010160256499
:10156000202084F83D00256384F83E50002070BDA3
:1015700001EB4106431EB3FBF6F35B1CB3E701200E
:10158000C2E701EB4101401EB0FBF1F0401CC0F38B
:101590000B00B7E7A086010080841E0000093D0013
:1015A00040420F002DE9F84F1F4690468A460446F8
:1015B000DDF82890FFF72CFF054694F83D00202821
:1015C0007FD11923012240492046009501F08EF871
:1015D000002876D194F83C00012872D0012084F8CC
:1015E0003C0020680168C90703D1016841F001018E
:1015F00001602068016821F400610160212084F805
:101600003D00102084F83E0000262664C4F82480A3
:101610006785608D20852D48E0622B464A465146FD
:10162000204600F0E9FF90B9206841698069009088
:1016300036E02A464946204601F0FEF850B1206CBB
:10164000042804D12068016841F400710160012080
:10165000BDE8F88F606A216800780861606A401C04
:101660006062618D491E6185218D491E89B2218587
:1016700022685369DB435B070BD451B100781061DA
:10168000606A401C6062608D401E6085208D401E37
:1016900020852A464946204600F0FCFF0028CED18E
:1016A000208D0028C5D154F83D0B016841F400712C
:1016B0000160202004F81E09E67766770020C7E75E
:1016C000FFE70220C4E70000020010000000FFFF57
:1016D00010B586B00021009101910291039100683C
:1016E0000F4988421AD10F4CA06940F00800A06150
:1016F000A069694600F008000490C0200090122004
:101700000190032003900848FFF788FDE06940F44A
:101710000010E061E06900F40010049006B010BD14
:101720000054004000100240000C01400248816853
:10173000027811448160704708000020074810B506
:10174000016841F010010160032000F075F80F20DE
:1017500000F006F800F024F8002010BD0020024040
:1017600070B50D4D04464FF47A712878B1FBF0F056
:101770000A490968B1FBF0F000F052FB48B9102C9F
:1017800007D200222146501E00F036F800206C607F
:1017900070BD012070BD0000080000201400002072
:1017A0000C4808B5816941F001018161816901F04E
:1017B00001010091C16941F08051C161C06900F02F
:1017C000805000900448416821F0E06141F00071D0
:1017D000416008BD0010024000000140002809DB04
:1017E00000F01F02012191404009800000F1E0203B
:1017F000C0F8001170470000F0B40E4B1B680C4697
:10180000C3F30223C3F10705042D00D90425191DD4
:10181000072901D2002300E0DB1E012606FA05F1AC
:10182000491E214099409E40761E16403143F0BC2F
:1018300001F0D6BE0CED00E0064900F00702086892
:101840004FF6FF03184040EA0220034A10430860A5
:10185000704700000CED00E00000FA052DE9F843A8
:1018600005460078354CC00754D0E0690026C0001A
:1018700008D4E06940F08050E061E069012600F0A2
:10188000805000902E480168C90512D40168804636
:1018900041F480710160FFF7BBFD074605E000BF22
:1018A000FFF7B6FDC01B642823D8D8F80000C00598
:1018B000F6D5206A10F4407021D0A98801F4407157
:1018C00081421CD0206A1F49012220F440700A6026
:1018D00000220A602062C00711D0FFF799FD074679
:1018E00041F2883808E000BFFFF792FDC11B414577
:1018F00002D90320BDE8F883206A8007F4D5206A66
:10190000696820F44070084320621EB1E06920F04D
:101910008050E0612878800705D56068A96820F4C8
:101920004040084360602878C00605D56068E968D3
:1019300020F48000084360600020DBE700100240D4
:1019400000700040400442422DE9F0470F46050078
:1019500061D0434E306800F00700B84209D23068C9
:1019600020F0070038433060306800F00700B842CC
:1019700051D128683B4C810712D5400703D56068D8
:1019800040F4E06060602878000703D5606840F4A8
:10199000605060606068A96820F0F00008436060F3
:1019A0002878C00728D06868012810D0216802284C
:1019B00010D0890700292EDA616821F00301014364
:1019C0006160FFF725FD804641F288390DE021680E
:1019D0008903EFE78901EDE7FFF71AFDA0EB0801A6
:1019E000494502D90320BDE8F0876068696800F0C6
:1019F0000C00B0EB810FEFD1306800F00700B84267
:101A00000BD9306820F0070038433060306800F0B0
:101A10000700B84201D00120E5E72878400705D546
:101A20006068E96820F4E060084360602878000797
:101A300006D56068296920F4605040EAC100606002
:101A400000F038F86168084AC1F30311515CC840DE
:101A50000649086006480068FFF782FE0020C2E7DA
:101A60000020024000100240BC3E0008140000208C
:101A70000C0000200448054900684968044AC1F385
:101A80000221515CC8407047140000200010024041
:101A9000CC3E00080448054900684968044AC1F37F
:101AA000C221515CC8407047140000200010024061
:101AB000CC3E00080E4A51680E4801F00C03042B7E
:101AC00011D0082B0FD10C48C1F38343C903C05C6C
:101AD0000AD55168084AC1F34041921E515C054A3B
:101AE0005043B0FBF1F07047044948437047000091
:101AF0000010024000127A00AC3E000800093D00D0
:101B00002DE9F84F040070D02078C04DC00749D0AF
:101B10006868C0F38100012807D06868C0F38100BD
:101B2000022809D16868C00306D52868800339D522
:101B300060680028E7D035E06068B0F5803F0BD0E2
:101B400010B1B0F5A02F11D0286820F480302860A3
:101B5000286820F4802002E0286840F48030286063
:101B6000606890B1FFF754FC06460AE0286840F42C
:101B700080202860F0E700BFFFF74AFC801B642844
:101B800073D828688003F7D50CE0FFF741FC0646C0
:101B900005E000BFFFF73CFC801B6428F0D82868F4
:101BA0008003F7D420789A4E80074FF001094FF058
:101BB000000839D5686810F00C0F07D06868C0F3CA
:101BC0008100022809D16868C00306D4286880070C
:101BD00014D52069012808D110E02069B0B1C6F8F9
:101BE0000090FFF715FC074605E00AE1FFF710FC3F
:101BF000C01B0228C4D828688007F7D52868616907
:101C000020F0F80040EAC10028600DE0C6F800802E
:101C1000FFF7FEFB074604E0FFF7FAFBC01B0228B4
:101C200023D828688007F7D4207800072CD5794876
:101C3000A169D9B1C0F80090FFF7EAFB074604E0BC
:101C4000FFF7E6FBC01B02280FD8686A8007F7D5AC
:101C500071484FF4FA510068B0FBF1F0009000BFFA
:101C60000098411E0091FAD20EE080E0C0F800809A
:101C7000FFF7CEFB074604E0FFF7CAFBC01B0228B4
:101C800075D8686A8007F7D42078400760D5E8697E
:101C90000027C00008D4E86940F08050E861E86996
:101CA000012700F0805000905C480168C90513D4FA
:101CB0000168834641F480710160FFF7A9FB824609
:101CC00006E000BFFFF7A4FBA0EB0A0064284ED893
:101CD000DBF80000C005F5D5E06801280AD008B19E
:101CE000052813D0286A20F001002862286A20F015
:101CF000040002E0286A40F001002862E06841F236
:101D0000883B98B1FFF784FB82460BE0286A40F0DD
:101D100004002862EEE700BFFFF77AFBA0EB0A01A0
:101D200059455AD8286A8007F6D50CE0FFF770FBB2
:101D3000824605E0FFF76CFBA0EB0A0159454CD841
:101D4000286A8007F6D41FB1E86920F08050E86166
:101D5000E06988B36968C1F38101022944D002288F
:101D6000C6F8608004D0FFF753FB044638E034E047
:101D7000FFF74EFB074604E0FFF74AFBC01B0228B3
:101D80002BD828688001F7D4206AB0F5803F05D1B0
:101D90006868A16820F4003008436860D4E908014D
:101DA0000843696821F4741108436860C6F86090BC
:101DB000FFF72EFB044606E025E000BFFFF728FBF7
:101DC000001B022809D828688001F7D51BE000BF56
:101DD000FFF71EFB001B022802D90320BDE8F88F85
:101DE00028688001F4D40EE00128F7D06868226AE0
:101DF00000F48031914204D1616A00F4701088428D
:101E000001D00120EAE70020E8E7000000100240CE
:101E10000000424280044242140000200070004052
:101E200010B5401EB0F1807F01D3012010BD4FF0EE
:101E3000E02460610F21601701F0D2FB0020A06157
:101E400007202061002010BD70B590F83C20012AC9
:101E500026D0012480F83C40022280F83D2003680F
:101E60005A689D6822F070060A6832435A600D4B2A
:101E700002689A4208D0B2F1804F05D00A4B9A42CC
:101E800002D00A4B9A4204D1496825F080031943D5
:101E9000916080F83D40002180F83C10084670BDFC
:101EA000022070BD002C01400004004000080040EA
:101EB00010B5040003D094F83D0010B107E00120F4
:101EC00010BD002084F83C00204600F01FF80220DE
:101ED00084F83D00211D206801F034F9012084F8C8
:101EE000460084F83E0084F83F0084F8400084F8FF
:101EF000410084F8420084F8430084F8440084F8E8
:101F0000450084F83D00002010BD000008B50068C1
:101F1000B0F1804F08D10548C16941F00101C161AC
:101F2000C06900F00100009008BD000000100240F0
:101F300090F83D10012901D001207047022180F85E
:101F40003D100168CA6842F00102CA6000680B498E
:101F5000884208D0B0F1804F05D00949884202D0AC
:101F60000849884204D1816801F00701062903D09D
:101F7000016841F00101016000207047002C014020
:101F8000000400400008004070B5044690F83C0092
:101F90000025012817D0012684F83C60022084F82F
:101FA0003D002068826822F0770222F47F4282603E
:101FB0000868502838D00DDC20284FD005DC90B3BD
:101FC000102811D14AE0022070BD302846D04028A8
:101FD0000AD13BE060282FD070280DD0B0F5805F8B
:101FE00003D0B0F5005F12D0012584F83D600020D9
:101FF00084F83C00284670BDCB68D1E901212068F7
:1020000001F0E9F82068816841F0770109E0CB68C8
:10201000D1E90121206801F0DEF82068816841F4EF
:1020200080418160E1E719E0CA684968206801F0F1
:1020300087F95021206806E0CA684968206801F0E5
:1020400090F96021206801F0D0F8CEE7CA684968AD
:10205000206801F075F940212068F4E72268014604
:102060001046F0E700B585B0002100910191029182
:1020700003910068B0F1804F11D10A48816941F0A5
:10208000040181618069694600F004000490082021
:1020900000900220019003900348FFF7BFF805B0BD
:1020A00000BD0000001002400008014070B5044669
:1020B00090F83C0000260D4601280FD0012084F83E
:1020C0003C006AB1042A1DD0082A2FD00C2A3FD028
:1020D0000126002084F83C00304670BD022070BD0F
:1020E000206801F08BF82068816941F00801816166
:1020F0002068816921F004018161206881692A6971
:10210000114311E0206801F0A1F82068816941F4D1
:10211000006181612068816921F4806181612068AA
:1021200081692A6941EA02218161D2E7206801F0D0
:10213000B9F82068C16941F00801C1612068C1692E
:1021400021F00401C1612068C1692A69114311E0CD
:10215000206801F0D3F82068C16941F40061C161D1
:102160002068C16921F48061C1612068C1692A6960
:1021700041EA0221C161ACE710B5040003D094F834
:102180003D0010B107E0012010BD002084F83C00A4
:10219000204600F01EF8022084F83D00211D206832
:1021A00000F0D0FF012084F8460084F83E0084F857
:1021B0003F0084F8400084F8410084F8420084F82D
:1021C000430084F8440084F8450084F83D00002072
:1021D00010BD704710B50446022249B104290ED043
:1021E000082913D094F84100012816D0012010BD11
:1021F00094F83E000128F9D184F83E200FE094F8CD
:102200003F000128F2D184F83F2008E094F8400014
:102210000128EBD184F8402001E084F8412001221C
:10222000206800F0CBFF0F492068884203D1426C40
:1022300042F4004242642068884208D0B0F1804FE6
:1022400005D00949884202D00849884204D18168F2
:1022500001F00701062903D0016841F00101016086
:10226000002010BD002C0140000400400008004088
:1022700070477047F8B5016804460868CA684B693A
:1022800010F00F0F4FF000055AD003F0010602F4D2
:102290009077374365D0C10705D0D10503D5616C70
:1022A00041F001016164410705D5D90703D0616C94
:1022B00041F002016164810705D5D90703D0616C43
:1022C00041F004016164010707D502F020013143A8
:1022D00003D0616C41F008016164616C00293BD05E
:1022E000800604D5900602D5204601F07BF82068D0
:1022F0004069616CC0F3801001F008010143204681
:102300002BD001F048F820684069400621D52068AC
:10231000143050E8001F21F0400140E80012002A6C
:10232000F5D1E06BA8B16D494163E06BFEF756FD56
:10233000002811D0E06B416B01B0BDE8F0400847C8
:1023400083060ED593060CD52046BDE8F84001F073
:1023500049B82046FFF78DFFF8BDFFF78AFF656497
:10236000F8BD266B2023012E7CD1C6067AD5D60671
:1023700078D508684868009048694FF00206400622
:1023800040D5E16B086840680004000CE8D0A28DDD
:102390008242E5D9E085886920282DD020680C305C
:1023A00050E8001F21F4807140E80012002AF5D1A6
:1023B0002168143151E8000F20F0010041E80002CB
:1023C000002AF5D12068143050E8001F21F04001A8
:1023D00040E80012002AF5D184F8423025632068D5
:1023E0000C3050E8001F21F0100140E80012002AD4
:1023F000F5D1E06BFEF7CEFC6663A08DE18D401A4F
:1024000081B22AE0A08DE18D401A81B2E08D0028D2
:10241000A6D00029A4D022680C3252E8000F20F484
:10242000907042E80007002FF5D12068143050E882
:10243000002F22F0010240E80027002FF5D184F898
:102440004230256320680C3050E8002F22F0100243
:1024500040E80023002BF5D166632046FFF708FF14
:10246000F8BDFFE705062BD5150629D594F84100E0
:102470002128F5D1A068B0F5805F01D12069B0B105
:10248000206A411C2162216800784860E08C401E6F
:102490000004000CE084E3D12068C16821F08001D1
:1024A000C1602068C16841F04001C160D8E7206A7E
:1024B0000088C0F308004860206A801C2062E5E7BD
:1024C0004006CDD55006CBD5CA68204622F0400242
:1024D000CA6084F8413000F076F8C1E7873300081D
:1024E00070B5040004D094F84100002510B106E056
:1024F000012070BD84F84050204600F023F82420CD
:1025000084F841002068C16821F40051C160204670
:1025100000F0CAFF2068016921F490410161206840
:10252000416921F02A0141612068C16841F40051EC
:10253000C1606564202084F8410084F8420065632E
:10254000002070BD30B585B0002400940194029441
:1025500003940068184988422CD11848816941F4D5
:1025600080418161816901F480410491816941F078
:10257000040181618069124D00F0040004904FF461
:1025800000700090022001900320039069462846C5
:10259000FEF744FE2815CDE900046946284602945A
:1025A000FEF73CFE002211462520FFF725F92520E5
:1025B000FFF714F905B030BD0038014000100240AB
:1025C0000008014070477047FEE701684A69D2433E
:1025D00052050FD46FF480624A61002140F8301F29
:1025E000202242738173026942F004020261017386
:1025F0000120704700207047F8B50446C06A1E46A7
:102600000D461746082807D0012805D010F5803F51
:1026100002D0206B122804D12068016841F4807137
:102620000160134600224FF001112046009600F091
:102630005DF840B120680068C00502D54FF4007015
:1026400020640320F8BD2069B0F5804F0ED006202D
:10265000216800EAD51040F0F000086133463A46A0
:102660000B49204600F08AF878B902E005F0FE0038
:1026700000E0E8B221680861054933463A46891FFF
:10268000204600F07BF80028DCD00120F8BD0000D7
:102690000800010070B516460D4604461EE02046AF
:1026A000FFF793FF08B1012070BD681C16D0FEF73C
:1026B000AFFE801BA84200D885B920684069C0439E
:1026C00040070BD5002044F8300F20216173A07320
:1026D000216941F0200121612073E4E7206840690D
:1026E000C0434007DBD4002070BD00002DE9F04757
:1026F000984617460D460446C1F30746DDF820907C
:102700002AE000BFB8F1FF3F26D0FEF781FEA0EB24
:102710000901414502D8B8F1000F1DD12068012EF2
:1027200016D0806925EA00000004000C12D00020B9
:10273000B84211D1002044F8300F20216173A073FA
:10274000216941F02001216120730120BDE8F0875B
:102750004069E7E70120EBE72068012E0AD0806995
:1027600025EA00000004000C06D00020B842C9D0C1
:102770000020EBE74069F3E70120F7E72DE9F04798
:10278000984616460D4604464FF000094FF0200AC1
:10279000C1F3074723E020684069C043400515D4D2
:1027A0002068016841F40071016021686FF4806065
:1027B0004861C4F8309084F83DA084F83E90216CC4
:1027C00041F00401216484F83C9021E0701C06D0A3
:1027D000FEF71EFEA0EB0800B04203D816B1012F91
:1027E0001FD021E02068012F15D0806925EA000064
:1027F0000004000C18D000BF44F8309F84F80DA0EE
:1028000084F80E90216941F02001216184F80C9038
:102810000120BDE8F087406925EA00000004000CB3
:10282000EAD12068406901E02068806925EA00005B
:102830000004000CAFD1ECE770B516460D46044617
:102840001EE02046FFF7C1FE08B1012070BD681CE4
:1028500016D0FEF7DDFD801BA84200D885B92068A0
:102860004069C04300060BD5002044F8300F2021FA
:102870006173A073216941F0200121612073E4E7B5
:1028800020684069C0430006DBD4002070BD000012
:102890001CB5002101918DF80500642000900223F1
:1028A00001AA78210148FEF77DFE1CBD0C05002021
:1028B0002DE9F84F044601F10B00C3B291464FF0E9
:1028C000010A04F11600C2B20D4656462046CDF864
:1028D00000A000F074F805F10800C3B204F118007C
:1028E000C2B2E81CC1B204F11700C0B2009600F0F9
:1028F00091F8A71CD346002605F1090A14344FF0BD
:102900000408AD1C10E000BF06FB0870C0B2811CBB
:10291000A14207D8CAB20AF0FF03E9B2CDF800B06D
:1029200000F078F8761CF6B24E45EDD3BDE8F88F8E
:1029300010B5202811D280290FD201F007040123FD
:10294000A340C90800EB41100449002ADBB20A5C2D
:1029500001D01A4300E09A430A5410BD1800002029
:10296000F8B50546143AD0B20F46082800D2082020
:102970003E18701E4FF0020C0124C3B21D226046A7
:10298000009400F01CF87F1DB61F07201822F9B232
:10299000F3B2994212D8591A491C4D436426323574
:1029A00095FBF6F5EDB2A94200DACDB2002D05D0C7
:1029B000591B491CC9B2009400F02CF8F8BD2DE950
:1029C000F0471D4616460F4680460446DDF8209027
:1029D0000BE04A4639462046FFF7AAFF4A462946F9
:1029E0002046FFF7A5FF641CE4B2B442F1D97F1C76
:1029F000FCB20BE04A4621464046FFF799FF4A46A3
:102A000021463046FFF794FF641CE4B2AC42F1D398
:102A1000BDE8F0872DE9F0471F4616460D46804673
:102A2000DDF820900CE0444606E04A462946204660
:102A3000FFF77EFF641CE4B2B442F6D96D1CEDB220
:102A4000BD42F0D9BDE8F0873EB500241648009499
:102A5000019414490294016089158160047304751E
:102A6000022505614FF4C0214460C161FEF738F8CA
:102A700008B1FDF7C3FE009401240620CDE9014012
:102A800069460948FDF746FF08B1FDF7B7FE6946FC
:102A90000548CDE90045FDF73DFF002801D0FDF7D1
:102AA000ADFE3EBD0024014098040020094808B551
:102AB000416941F0010141614069002200F00100DB
:102AC000009004210B20FEF797FEBDE808400B2084
:102AD000FEF784BE0010024070B586B00024264880
:102AE0000094019402940394816941F02001816172
:102AF000816901F020010491816941F00401816143
:102B0000816901F004010491816941F0080181614A
:102B100080691A4E00F00800049000224FF488519A
:102B20003046FEF770FC4FF4C270CDE900046946F0
:102B300013480294FEF772FBB014009001AA112012
:102B4000022582E8310069463046FEF767FB3020F7
:102B5000CDE90004694630460294FEF75FFBE801C8
:102B6000009001AA012082E8310069463046FEF754
:102B700055FB06B070BD000000100240000C014083
:102B8000000801400D4810B50B4901600C49416037
:102B900000214FF480428160C0E9031241618161EC
:102BA000C1610162FEF73AFC002803D0BDE8104085
:102BB000FDF724BE10BD0000005400400C050020AD
:102BC000A086010010B58EB00024079408940994E3
:102BD0000A940B941C2168460C94FDF72AFB2548A7
:102BE0004FF0804101604721C0E9011440F2E73114
:102BF000C0E9031480218161FFF75AF908B1FDF79C
:102C0000FDFD4FF48050079007A91A48FFF7BCF963
:102C100008B1FDF7F3FD1748FFF7AEFA08B1FDF76D
:102C2000EDFD5020CDE90B040BA91248FFF70CF97C
:102C300008B1FDF7E3FD602000904FF4FA70CDE994
:102C40000104042269460B480494FFF72FFA08B1E7
:102C5000FDF7D4FD4FF4967001900C2269460548AB
:102C6000FFF724FA08B1FDF7C9FD0248FFF7FAF9AA
:102C70000EB010BD600500200C4810B50A49016077
:102C80004FF416514160002181600C22C160C0E9FF
:102C900004128161C161FFF723FC002803D0BDE865
:102CA0001040FDF7ABBD10BD00380140A805002065
:102CB000FEE7FEE710B54FF4007421460448FDF727
:102CC00096FA2146BDE810400248FDF790BA000090
:102CD000180000201802002010B56420FEF7DAF971
:102CE000AE20FFF7D5FDD520FFF7D2FD8020FFF7FE
:102CF000CFFDA820FFF7CCFD1F20FFF7C9FDD32093
:102D0000FFF7C6FD0020FFF7C3FD4020FFF7C0FD21
:102D10008D20FFF7BDFD1420FFF7BAFD2020FFF73F
:102D2000B7FD0020FFF7B4FDA020FFF7B1FDC020E4
:102D3000FFF7AEFDDA20FFF7ABFD0220FFF7A8FD9D
:102D40008120FFF7A5FD8F20FFF7A2FDD920FFF717
:102D50009FFDF120FFF79CFDDB20FFF799FD402050
:102D6000FFF796FDA420FFF793FDA620FFF790FD47
:102D70002E20FFF78DFDAF20FFF78AFDFFF79AFFAA
:102D8000BDE81040AFF300802DE9FC410024144E53
:102D90005FF0640704F1B000C0B2FFF779FD0020D6
:102DA000FFF776FD1020FFF773FD002505EBC4103B
:102DB0000CA1305C096801918DF80500022301AA7D
:102DC000782109480097FEF7EDFB6D1CEDB2802DD0
:102DD000ECD3641CE4B2042CDCD3BDE8FC8100001D
:102DE00018020020400000000C0500200149087076
:102DF00070470000000000202DE9FF5F0C460546EB
:102E000016464FF400715248FDF7F1F901212A46A8
:102E10000420FFF74DFD4FF0160B4FF0020A4FF064
:102E20000C09C4B100254B48002400EB051709EB41
:102E30000508385D38B10AEB040008F0FF01C0B2A4
:102E40000122FFF775FD641CE4B2102CF1D36D1C58
:102E5000EDB2142DE7D340484FF01B09D846007857
:102E6000D8B16FF00104A246554608EB040700BF35
:102E700005FB05F004FB0400042806DC09EB050053
:102E8000F9B2C0B20122FFF753FD6D1C6DB2022DE5
:102E9000EEDD641C64B2022CE6DD62221E213046A7
:102EA000FFF75EFD00F0D6F8002400940194642E34
:102EB00007D34F208DF800004B208DF80100212012
:102EC00015E025200A2E05D230368DF800608DF8E9
:102ED00001000EE00A22B6FBF2F130318DF800104D
:102EE000B6FBF2F102FB116130318DF801108DF863
:102EF0000200042501264FF06E086A46002001E01A
:102F0000401CC0B2115C0029FAD102AB06E0471A9E
:102F1000174417F8017C5F54491CC9B28142F6D3AB
:102F20001C541F4600240CE02819C1B23346404609
:102F30007F1C00F015F80A34E4B204F108002028E0
:102F400002D83A78002AEFD1FFF71EFFBDE8FF9FB5
:102F5000180000208A3C0008000000207047000094
:102F60002DE9F04F9E4600F11003802B54D801F15B
:102F70000803202B50D8A2F13003092B01D8DAB274
:102F800008E0252A36D04F2A36D04B2A36D0212ABF
:102F900042D10D22214B0024DFF8849003EB021C68
:102FA000012500BF1CF804705FF0000205FA02F36F
:102FB0003B4229D006198B18802E25D2002B23DB0B
:102FC000202B21DA4FEAE37803EB587B2BF007083C
:102FD000A3EB0803CBF3CF0A05FA03F806EBCA13F9
:102FE00008F0FF0819F80360BEF1000F08D046EAA8
:102FF000080607E00A22CDE70B22CBE70C22C9E73F
:1030000026EA080609F80360521CD2B2082ACDD37A
:10301000641CE4B2102CC5D3BDE8F08FCA3D000893
:10302000180200200849094B0A689A4205D1D1E9E3
:103030000121C0E9002101207047054901604621B6
:10304000818000207047000000FC00087856341290
:103050009A99993E2DE9F0414FF400711748FDF718
:10306000C6F8174C00200021C30800F0070200BF7B
:1030700001EB4315655DD54015F0010F14D0C1F18A
:103080001F05EDB280280FD2202D0DD2EE0805F0DD
:1030900007070125BD40094F00EBC61617F806C00B
:1030A0004CEA050C07F806C0491CC9B22029DFD339
:1030B000401CC0B28028D6D3BDE8F08118020020A1
:1030C000180000207047FEF731BB30B593B02821BF
:1030D0006846FDF7AEF814210AA8FDF7AAF8002506
:1030E00001200F9510951195010412958DE823008C
:1030F00004904FF4E010CDE90810022407946846CC
:10310000FEF7FEFC08B172B6FEE70AA90F2081E8BF
:1031100031004FF48060CDE90D0502210AA8FEF7C9
:1031200013FC08B172B6FEE74FF4004011900F9403
:103130000FA8FEF793FB002801D072B6FEE713B08C
:1031400030BD7047F0B50268194B1A4C1A4D4FF05C
:103150008047984205D0B84203D0A04201D0A8428F
:1031600003D122F070064A683243984205D0B84233
:1031700003D0A04201D0A84203D122F44074CA680F
:1031800022434C6922F08002224302608A68C262B4
:103190000A688262984201D1096901630121416193
:1031A0000169C90703D0016921F001010161F0BD86
:1031B000002C0140000400400008004010B501F060
:1031C0001F030121046A99408C430462016A9A40FA
:1031D0001143016210BD10B5846842EA032224F451
:1031E0007F440A432243826010BD826822F070024D
:1031F0000A4342F0070181607047000030B5036A5E
:10320000026A22F0010202624268846924F07305B6
:103210000C682C4323F002058B682B430A4DA8420F
:103220000BD123F00805CB6822F440722B434D6983
:1032300023F0040315438A692A4342608461496884
:103240004163036230BD0000002C014030B5026ACA
:10325000036A23F010030362436884690D6824F451
:10326000E64444EA05248D6822F0200242EA051271
:103270000B4DA8420ED1CD6822F0800242EA051221
:103280004D6923F4406343EA85038D6922F04002CF
:1032900043EA85034360846149688163026230BD0B
:1032A000002C014030B5036A026A22F48072026287
:1032B0004268C46923F4007324F073050C682C433E
:1032C0008D6843EA05230C4DA8420ED1CD6823F446
:1032D000006343EA05234D6922F4405242EA051295
:1032E0008D6923F4806342EA05124260C461496833
:1032F000C163036230BD0000002C014030B5046A98
:10330000026A22F4805202624268C3690D6823F4A3
:10331000E64343EA05238D6824F4005444EA053467
:10332000064DA84204D14D6922F4804242EA85123A
:103330004260C36149680164046230BD002C0140F1
:1033400010B5036A046A24F001040462846924F05D
:10335000F00444EA021423F00A020A438461026280
:1033600010BD10B5036A046A24F010040462846975
:1033700023F0A00324F4704444EA023243EA01112A
:103380008261016210BD10B5406A0021C185C1840F
:10339000FEF76FFF10BD01680C3151E8002F22F4D9
:1033A000907241E80023002BF5D10168143151E8F7
:1033B000002F22F0010241E80023002BF5D1016B20
:1033C000012909D101680C3151E8002F22F01002C7
:1033D00041E80023002BF5D1202180F84210002184
:1033E0000163704708B590F84210222901D00220ED
:1033F00008BD82684FF480539A4201D1016921B11E
:10340000816A9A421BD04AB10AE00268816A526816
:10341000C2F308020A80816A891C08E0026972B15D
:103420000268526802F07F020A70816A491C816258
:10343000C18D491E0904090CC18503D01BE0026837
:103440005268F1E70168CA6822F02002CA60016888
:10345000CA6822F48072CA6001684A6922F00102D7
:103460004A61202180F8421000214163026B012A49
:1034700003D0FFF7A7F8002008BD016301680C31F5
:1034800051E8002F22F0100241E80023002BF5D173
:1034900001680A68D20602D50A6849680091818DE0
:1034A000FEF7E6FEE7E7000070B504460068016934
:1034B000E26821F44051114301612169A068084389
:1034C000616908432168CA6841F20C639A43024368
:1034D000CA6020684169A26921F4407111434161C9
:1034E0001E492068884202D1FEF7D4FA01E0FEF7B7
:1034F000C1FA00EBC00101EB00126068642180009A
:10350000B2FBF0F3B3FBF1F36FF018067343B2FBB9
:10351000F0F5B2FBF0F605EB8305322303EB05155E
:10352000B5FBF1F5B6FBF1F605F0F00505EB061578
:10353000B2FBF0F6B2FBF0F0B0FBF1F06FF0180266
:10354000504306EB800003EB0010B0FBF1F0216864
:1035500000F00F002844886070BD00000038014072
:103560000148FEF787BE0000A8050020FEE7000026
:1035700070B58AB0184A0292D0E90020CDE9032044
:1035800091F82400022824D1FDF734FE134D0024C5
:103590002868401C04D00020FFF744FD012808D112
:1035A000059401200094CDE90750694605A8FDF770
:1035B00083FD02AE5FF0000405EB840156F8242081
:1035C00000230220FDF7D6FD641C032CF4D3FDF785
:1035D000C7FD0AB070BD00007856341200FC000828
:1035E0000907090E002804DB00F1E02080F8001430
:1035F000704700F00F0000F1E02080F8141D7047C4
:1036000010B50446002094F82410022909D1E1697C
:10361000606900F0C5FA00216161E160012184F870
:10362000241010BDFEF78AF8FFF74FFDFFF754FA9C
:10363000FFF73CFAFFF708FAFFF7A4FAFFF71CFBC5
:10364000FFF7C0FA0A48FDF759F8FFF745FB0120DC
:10365000FFF7CCFB064C00BF94F8442094F83000F0
:103660000121FFF7C9FB7120FDF714FDF4E700000D
:103670001804002090EA010F48BF81F0004100F1DA
:103680009682421A3CBF801A89184FEAD0524FF0F6
:103690007F4C1CEA410FA2EBD15318BF9CEA026F8A
:1036A00000F03B804FF0004C4CEA00204CEA012136
:1036B00021FA03FC10EB0C0C1ED202F1FF325FEA80
:1036C0001C2040EBC25038BF70471CF07F0F4FEA00
:1036D000400C18BFBCF17F4F38BF7047C3F12003C7
:1036E000994008BF20F00100BCF17F4F38BF704700
:1036F000A0F1C04000F01DBA4FEA3C00000A40EBC8
:10370000C25028BF1CF0FF0F4FEA400CE6D018BF94
:10371000BCF17F4F38BF7047EAE79CEA026F05D0E3
:1037200010EA5C0F08BF00F00040704710B500F0D1
:10373000BAF900BF64FBBE3E401058BFC0F1404024
:10374000491058BFC1F140418142EFF300807047FA
:103750004FF47F0C1CEAD0121EBF1CEAD11392EA70
:103760000C0F93EA0C0F00F0858090EA010F48BF20
:1037700042F4807240F4000C41F400002CF07F41D0
:1037800020F07F4000B58142A2EB03020FF2081C3B
:10379000ACEB504EC0F100009EF800E04FEA4E0E38
:1037A00000FB0EFC38BF49004FEA2C1C02F5FA0260
:1037B0000CFB0EF34FEACE1E4FEA112C4FEAC1214B
:1037C0000EEB635E42EB22420EFB0CFC4FEA1C53F5
:1037D00000FB03114FEA112C4FEA01310EFB0CFCE8
:1037E0004FEADC4C00FB0C11C14228BF09184CEB1E
:1037F00003335DF804EB10EB410143EBC250B2F52B
:103800007C0F38BF704729D512F0F00F1CBF00F1B4
:10381000C04000F000407047008182838485868725
:1038200088898B8C8D8E8F919293959697999A9C7F
:103830009D9FA0A2A3A5A7A8AAACAEB0B2B3B5B7EE
:10384000B9BCBEC0C2C5C7C9CCCED1D4D7D9DCDFC4
:10385000E2E6E9ECF0F3F7FAFE0000004FEA400C74
:103860000CF1807CBCF17E4F28BF7047B0F1C040A6
:1038700000F05FB990EA010F0CEAD11348BF42F49F
:103880008072624538BF634507D213F47F0F16D0AC
:1038900080EA010000F00040704710B500F003F925
:1038A000097EFC3E00F005B880EA010000F000400F
:1038B000704780EA010000F0004000F03AB912F4CD
:1038C0007F0F04BF0248704780EA010000F031B961
:1038D0000000C07FC10DD1F19E0206DB4FEA00233C
:1038E00043F0004323FA02F07047004207D54FEA45
:1038F0004001B1F1FE4F02D24FF00000704710B509
:1039000000F0D1F849922480002070476FEA20002F
:1039100070470000B0FA80F310FA03F2C3F19D0380
:103920000AD0D90501EB1220530638BF704700F1C9
:10393000010008BF20F001007047000050EA010CB0
:1039400000F113801CF5000F58BFBCF5000F01D427
:103950008842704707D710F5000F58BF11F5000FC8
:1039600015D488427047894270471CF5000F04D572
:10397000BCF5000FF7D5814270474FF0807C1CEBFF
:10398000400F38BF1CEB410F01D28142704710B588
:1039900000F089F8922449004FF000504FF0805118
:1039A000FFF7CABE4FF47F0C1CEAD0121EBF1CEA00
:1039B000D11392EA0C0F93EA0C0F00F0478090EAC3
:1039C000010F48BF42F480724FF0004C4CEA0020D7
:1039D0004CEA012102EB0302A0FB0113A2F5000255
:1039E000002918BF43F001035B0028BF4FEA3303EF
:1039F00042EB22425FEA132C4CEBC2502EBFBCEBD1
:103A0000436FB2F57C0F70474FEA036CBCF1004F77
:103A100008BF20F00100B2F57C0F38BF70470BD50E
:103A200082F0FF0212F5803FC8BF704700F1C0402E
:103A3000D8BF00F00040704700F5000C5FEA4C0C66
:103A400048BF7047B0F1C04000F073B890EA010F72
:103A50000CEAD11348BF42F48072624538BF634517
:103A600004D280EA010000F00040704710B500F079
:103A70001AF800BF8900013E00F007B800F009B84D
:103A80005FEA410C5FEA1C6C08D080EA010000F09C
:103A900050B85FEA400C5FEA1C6CF6D14FF0004072
:103AA000A0F5800070470EF1020E2EF0030E5EF8B6
:103AB000044B244204D44FEA4102B2F17F4F11D8A3
:103AC0004FEA4003B3F17F4F0CD80ED14FEAD07CC0
:103AD000B2F17F4F0CEB4C0C0CF1020C08BF4CEB1D
:103AE000D17C04E04FF0080C01E04FEAD17C0CEBF4
:103AF0004C0324FA03F404F00704B4F1040C06D2D6
:103B00000EEB840CBDE810404CF0010C6047DFE880
:103B10000CF0070802024FF00040A0F5800010BD35
:103B20000846420018BFD2F1807288BF00F0004002
:103B300010BDFF2141EAD050C005704751EA000C8A
:103B400000F113801CF5000F58BFBCF5000F01D425
:103B50008142704707D711F5000F58BF10F5000FCD
:103B600015D481427047894270471CF5000F04D577
:103B7000BCF5000FF7D5884270474FF0807C1CEBF6
:103B8000410F38BF1CEB400F01D28842704780EADA
:103B9000010081EA000180EA0100FFF7F8BE0000A1
:103BA00090EA010F48BF81F000413FF56AAD421A2B
:103BB00004D882F00042A0EB020011444FEAD05238
:103BC0004FF07F4C1CEA410FA2EBD15318BF9CEA87
:103BD000026F4AD04FF0004C4CEA00204CEA012121
:103BE00021FA03FCB0EB0C0C0FD412F0FE0F36D010
:103BF0005FEA4C001DD5001240EBC25038BF704741
:103C00001CF03F0F18BF70470BE0A2F101025FEA02
:103C10001C2040EBC25038BF70471CF07F0F18BF0C
:103C20007047C3F12003994014BF401E20F00100EB
:103C3000704780084FEA122308BF7047B0FA80FC33
:103C4000A2EB0C02CCF1280C60FA0CF093EA122FD4
:103C500004BF00EBC25070474FEAC3707047130AAD
:103C60005FEADC1008BF7047F6E79CEA026F04D0F9
:103C700010EA5C0F08BF0020704710B5FFF713FF74
:103C800040DFF63E81F00040704700000000000079
:103C90000000000000000000000000000000000024
:103CA0000000000000000000000000000000000014
:103CB0000000000000000000000000000000000004
:103CC00000010000000000000000000000000000F3
:103CD00000010100000000000000000000000100E1
:103CE00000010001000000000000000000000001D1
:103CF00000010000010000000000000000000000C2
:103D000001010001000000000000000000000000B0
:103D100000010100000000000000000000000000A1
:103D2000010100010000000000000000000000018F
:103D30000001000001000000000000000000010080
:103D40000001000100000000000000000000000071
:103D50000001010000000000000000000000000061
:103D60000001000000000000000000000000000052
:103D70000000000000000000000000000000000043
:103D80000000000000000000000000000000000033
:103D90000000000000000000000000000000000023
:103DA0000000000000000000000000000000000013
:103DB0000000000000000000000000000000000003
:103DC0000000000000000000000000003C424242F1
:103DD0004242424242423C000000000008182808CB
:103DE0000808080808083E00000000003C424202A3
:103DF0000408102040427E00000000003C424202C5
:103E00000C02024242423C0000000000040C142458
:103E100044847E0404041F00000000007E404040F3
:103E20007844424242423C00000000003C42404094
:103E30007844424242423C00000000007E420408B6
:103E40000810101010101000000000003C42424208
:103E50003C42424242423C00000000003C4242429E
:103E6000423E020242423C0000000000609090602E
:103E70000814122141827C00000000003C424242B2
:103E80004242424242423C0000000000424448504C
:103E90006050484442000000000000000808080884
:103EA00008080008000000000000010202030405E9
:103EB000060708090A0B0C0D0E0F10100000000079
:103EC00000000000010203040607080900000000CA
:103ED00001020304F43E0008000000201800000066
:103EE000280100080C3F000818000020580C0000B2
:103EF0004401000800000000000000000100000074
:0C3F0000100000000000000000127A0019
:04000005080000ED02
:00000001FF
